S0100000536D6172744D61742E73726563EB
S11300000C942A000C9447000C9447000C9447006D
S11300100C9447000C9447000C9447000C94470040
S11300200C9447000C9447000C9447000C94470030
S11300300C9447000C9447000C9447000C94470020
S11300400C9447000C9447000C9447000C94470010
S11300500C94470011241FBECFE5D8E0DEBFCDBF0E
S113006010E0A0E6B0E0E0E4F7E002C005900D92F5
S1130070A637B107D9F720E0A6E7B0E001C01D928A
S1130080AC39B207E1F70E9431030C949E030C943F
S11300900000C69A0000C6980895CF93DF93D82F26
S11300A0662311F0C49A01C0C498C59887B38F60C1
S11300B087BBC8B3C07F8D2F82958F708C2B88BB74
S11300C00E944900DF70DC2BD8BB0E944900CF603E
S11300D0C8BBDF91CF910895882311F0C49A01C061
S11300E0C498C59A87B3807F87BBC69A000026B39D
S11300F0C6980000C69A000096B32295207F892FE7
S11301008F70C698822B089580E00E946C0088232B
S1130110DCF300C000C080E00E946C000895CF931F
S1130120C82F0E94840060E08C2F0E944D00CF9164
S11301300895611104C080580E948F00089580546E
S11301400E948F00089581E00E948F000895CF934C
S1130150C82F0E948400CA3049F4803410F080E033
S113016001C080E480580E948F0004C061E08C2F9D
S11301700E944D00CF910895CF93DF93EC01219617
S1130180FC018081882329F00E94A70089918111B4
S1130190FBCFDF91CF910895CF93C82F97B39F677B
S11301A097BB8FE99FE00197F1F700C00000C19A67
S11301B0C09A0E94490081EE94E00197F1F700C0D3
S11301C000000E94490095E19A95F1F700000E9411
S11301D0490085E18A95F1F70000C0980E94490022
S11301E095E19A95F1F7000088E20E948F0088E07B
S11301F00E948F000E94A30086E00E948F008C2F33
S11302000E948F00CF91089580E487B987E886B96A
S1130210089597B18770987F892B87B9369A369954
S1130220FECF84B195B108951092810010928000A0
S1130230109283001092820081E084BB80E881BB2D
S113024012BA15BA0E9404018CE00E94CC000E94EC
S1130250A30060E080E00E94990080E690E00E94A4
S1130260BC0060E088E00E94990084E690E00E946F
S1130270BC0061E080E00E94990089E690E00E9461
S1130280BC0008950F931F93CF93DF93C82FD62FED
S11302908A010E94990080E790E00E94BC006D2FC3
S11302A08C2F0E949900C8010E94BC00DF91CF915D
S11302B01F910F910895009771F581E085BB80919E
S11302C08200909183000196909383008093820032
S11302D04AE050E068E870E00E945E0348E850E0BD
S11302E060E084E00E94420180918200909183004A
S11302F020918000309181004AE050E068E870E08D
S1130300821B930B0E945E0348E850E061E087E0A3
S11303100E9442010895019771F580E882BB8091A3
S113032080009091810001969093810080938000D9
S11303304AE050E068E870E00E945E0348E850E05C
S113034060E08DE00E9442018091820090918300E0
S113035020918000309181004AE050E068E870E02C
S1130360821B930B0E945E0348E850E061E087E043
S11303700E944201089512BA15BA089580E00E94BD
S11303800901909393008093920081E00E940901F7
S113039090937F0080937E0082E00E9409019093F5
S11303A085008093840083E00E9409019093870074
S11303B08093860084E00E940901909399008093C1
S11303C0980085E00E94090190939700809396001D
S11303D083EC99E00197F1F700C000000895AF9213
S11303E0BF92CF92DF92EF92FF920F931F93CF931E
S11303F0DF9310927D0010927C0010929B0010926B
S11304009A001092950010929400C0E0D0E003E0AE
S113041010E0EE24E394F12CA12CB12CCA2CDB2C9B
S11304200E94BE01AEC00E94BE01809192009091D4
S1130430930081349105ACF020917C0030917D00D3
S1130440C901B8010E943603FC01EE0FFF1FEA58F0
S1130450FF4F118210822F5F3F4F30937D00209316
S11304607C0080917E0090917F0081349105ACF0F6
S113047020917C0030917D00C901B8010E943603AF
S1130480FC01EE0FFF1FEA58FF4F118210822F5F0D
S11304903F4F30937D0020937C00809184009091A5
S11304A0850081349105ACF020917C0030917D0071
S11304B0C901B8010E943603FC01EE0FFF1FEA5880
S11304C0FF4F118210822F5F3F4F30937D002093A6
S11304D07C00809186009091870081349105ACF076
S11304E020917C0030917D00C901B8010E9436033F
S11304F0FC01EE0FFF1FEA58FF4FF182E0822F5FED
S11305003F4F30937D0020937C0080919800909120
S1130510990081349105ACF020917C0030917D00EC
S1130520C901B8010E943603FC01EE0FFF1FEA580F
S1130530FF4FF182E0822F5F3F4F30937D00209385
S11305407C00CC2DDD2D8091960090919700813414
S11305509105BCF020917C0030917D00C901B80167
S11305600E943603FC01EE0FFF1FEA58FF4FF18291
S1130570E0822F5F3F4F30937D0020937C00CA2D93
S1130580DB2D809192009091930041970CF04BCF1A
S113059080917E0090917F0041970CF044CF809130
S11305A084009091850041970CF03DCF80918600A6
S11305B09091870041970CF036CF809198009091EC
S11305C0990041970CF02FCF80919600909197005D
S11305D041970CF028CF2196C233D1050CF420CFDB
S11305E080917C0090917D00892B61F12091940091
S11305F03091950080919A0090919B00E6E7F0E09D
S11306004CE750E061917191672B19F42F5F3F4FD4
S113061001C00196E417F507A9F790939B00809316
S11306209A003093950020939400821793072CF43A
S113063080E090E00E945B0109C081E090E00E94AC
S11306405B0104C08FEF9FEF0E945B01DF91CF91AC
S11306501F910F91FF90EF90DF90CF90BF90AF90DC
S113066008950E9414010E94EF01FDCF97FB072E0D
S113067016F4009407D077FD09D00E944A0307FCC2
S113068005D03EF4909581959F4F0895709561959E
S11306907F4F0895AA1BBB1B51E107C0AA1FBB1FB4
S11306A0A617B70710F0A61BB70B881F991F5A95FA
S11306B0A9F780959095BC01CD0108954532510567
S11306C020F4423010F00C946903FB011082CB013A
S11306D00895BB274A3031F4992322F4BDE2909562
S11306E081959F4F0C947503BB27FB015527AA27BF
S11306F0880F991FAA1FA41710F0A41B83955051AB
S1130700B9F7A05DAA3308F0A95DA193009779F722
S1130710B111B1931192CB010C948E03DC01FC0155
S1130720672F71917723E1F7329704C07C916D9321
S113073070836291AE17BF07C8F30895F894FFCF92
S1130740496E3D004F75743D00546F74616C3D00FB
S10907502020202000001F
S9030000FC
