:100000000C942A000C9447000C9447000C94470071
:100010000C9447000C9447000C9447000C94470044
:100020000C9447000C9447000C9447000C94470034
:100030000C9447000C9447000C9447000C94470024
:100040000C9447000C9447000C9447000C94470014
:100050000C94470011241FBECFE5D8E0DEBFCDBF12
:1000600010E0A0E6B0E0E8E6F7E002C005900D92EF
:10007000A637B107D9F720E0A6E7B0E001C01D928E
:10008000AC39B207E1F70E9445030C94B2030C941B
:100090000000C69A85E08A95F1F70000C698089599
:1000A000CF93DF93D82F662311F0C49A01C0C49870
:1000B000C59887B38F6087BBC8B3C07F8D2F8295EB
:1000C0008F708C2B88BB0E944900DF70DC2BD8BB63
:1000D0000E944900CF60C8BBDF91CF91089588236B
:1000E00011F0C49A01C0C498C59A87B3807F87BBBA
:1000F000C69A85E08A95F1F7000026B3C69885E098
:100100008A95F1F70000C69A85E08A95F1F700001C
:1001100096B32295207F892F8F70C698822B0895E1
:1001200080E00E946F008823DCF385E18A95F1F777
:10013000000080E00E946F000895CF93C82F0E94B6
:10014000900060E08C2F0E945000CF9108956111C3
:1001500004C080580E949D00089580540E949D0014
:10016000089581E00E949D000895CF93C82F0E94BA
:100170009000CA3049F4803410F080E001C080E47F
:1001800080580E949D0004C061E08C2F0E945000A6
:10019000CF910895CF93DF93EC012196FC018081EC
:1001A000882329F00E94B50089918111FBCFDF914E
:1001B000CF910895CF93C82F97B39F6797BB8FEFC9
:1001C00099EF0197F1F700C00000C19AC09A0E9410
:1001D00049008FE19EE40197F1F700C000000E9402
:1001E00049008FEF90E00197F1F700C000000E94F6
:1001F00049008FEF90E00197F1F700C00000C09830
:100200000E9449008FEF90E00197F1F700C00000D5
:1002100088E20E949D0088E00E949D000E94B1003B
:1002200086E00E949D008C2F0E949D00CF91089532
:1002300080E487B987E886B9089597B18770987F79
:10024000892B87B9369A3699FECF84B195B1089536
:100250001092810010928000109283001092820010
:1002600081E084BB80E881BB12BA15BA0E941801F4
:100270008CE00E94DA000E94B10060E080E00E9401
:10028000A70080E690E00E94CA0060E088E00E943B
:10029000A70084E690E00E94CA0061E080E00E942E
:1002A000A70089E690E00E94CA0008950F931F936B
:1002B000CF93DF93C82FD62F8A010E94A70080E733
:1002C00090E00E94CA006D2F8C2F0E94A700C801E9
:1002D0000E94CA00DF91CF911F910F91089500975E
:1002E00071F581E085BB8091820090918300019639
:1002F00090938300809382004AE050E068E870E0C9
:100300000E94720348E850E060E084E00E945601D9
:100310008091820090918300209180003091810033
:100320004AE050E068E870E0821B930B0E94720381
:1003300048E850E061E087E00E9456010895019787
:1003400071F580E882BB80918000909181000196D8
:1003500090938100809380004AE050E068E870E06C
:100360000E94720348E850E060E08DE00E94560170
:1003700080918200909183002091800030918100D3
:100380004AE050E068E870E0821B930B0E94720321
:1003900048E850E061E087E00E945601089512BAF3
:1003A00015BA089580E00E941D01909393008093F8
:1003B000920081E00E941D0190937F0080937E0057
:1003C00082E00E941D01909385008093840083E069
:1003D0000E941D01909387008093860084E00E9414
:1003E0001D01909399008093980085E00E941D0163
:1003F00090939700809396008FE39CE90197F1F723
:1004000000C000000895AF92BF92CF92DF92EF92AA
:10041000FF920F931F93CF93DF9310927D00109262
:100420007C0010929B0010929A00109295001092FE
:100430009400C0E0D0E003E010E0EE24E394F12C5F
:10044000A12CB12CCA2CDB2C0E94D201AEC00E9480
:10045000D201809192009091930081349105ACF08B
:1004600020917C0030917D00C901B8010E944A03AF
:10047000FC01EE0FFF1FEA58FF4F118210822F5F21
:100480003F4F30937D0020937C0080917E009091BF
:100490007F0081349105ACF020917C0030917D008B
:1004A000C901B8010E944A03FC01EE0FFF1FEA5880
:1004B000FF4F118210822F5F3F4F30937D002093BA
:1004C0007C00809184009091850081349105ACF08E
:1004D00020917C0030917D00C901B8010E944A033F
:1004E000FC01EE0FFF1FEA58FF4F118210822F5FB1
:1004F0003F4F30937D0020937C0080918600909147
:10050000870081349105ACF020917C0030917D0012
:10051000C901B8010E944A03FC01EE0FFF1FEA580F
:10052000FF4FF182E0822F5F3F4F30937D00209399
:100530007C00809198009091990081349105ACF0F5
:1005400020917C0030917D00C901B8010E944A03CE
:10055000FC01EE0FFF1FEA58FF4FF182E0822F5F90
:100560003F4F30937D0020937C00CC2DDD2D80917A
:1005700096009091970081349105BCF020917C0009
:1005800030917D00C901B8010E944A03FC01EE0FC1
:10059000FF1FEA58FF4FF182E0822F5F3F4F3093F9
:1005A0007D0020937C00CA2DDB2D809192009091DC
:1005B000930041970CF04BCF80917E0090917F008B
:1005C00041970CF044CF8091840090918500419731
:1005D0000CF03DCF809186009091870041970CF000
:1005E00036CF809198009091990041970CF02FCFD1
:1005F000809196009091970041970CF028CF21961A
:10060000C83CD1050CF420CF80917C0090917D00F6
:10061000892B61F1209194003091950080919A008E
:1006200090919B00E6E7F0E04CE750E0619171911A
:10063000672B19F42F5F3F4F01C00196E417F507B0
:10064000A9F790939B0080939A0030939500209394
:100650009400821793072CF480E090E00E946F01D1
:1006600009C081E090E00E946F0104C08FEF9FEF0E
:100670000E946F01DF91CF911F910F91FF90EF903A
:10068000DF90CF90BF90AF9008950E9428010E9404
:100690000302FDCF97FB072E16F4009407D077FDD9
:1006A00009D00E945E0307FC05D03EF49095819529
:1006B0009F4F0895709561957F4F0895AA1BBB1BAE
:1006C00051E107C0AA1FBB1FA617B70710F0A61B52
:1006D000B70B881F991F5A95A9F780959095BC0173
:1006E000CD0108954532510520F4423010F00C94AC
:1006F0007D03FB011082CB010895BB274A3031F402
:10070000992322F4BDE2909581959F4F0C94890323
:10071000BB27FB015527AA27880F991FAA1FA417DB
:1007200010F0A41B83955051B9F7A05DAA3308F0CF
:10073000A95DA193009779F7B111B1931192CB0103
:100740000C94A203DC01FC01672F71917723E1F780
:10075000329704C07C916D9370836291AE17BF078E
:08076000C8F30895F894FFCFDF
:10076800496E3D004F75743D00546F74616C3D00D7
:06077800202020200000FB
:00000001FF
